:1000000014C023C023C021C020C01FC02AC01DC0EF
:100010001CC01BC01AC019C018C017C016C015C01C
:1000200014C013C012C011C010C011241FBECFE5F0
:10003000D1E0DEBFCDBF20E0A0E6B0E001C01D9260
:10004000A836B207E1F75FD0EFC0DACF8F939F9366
:1000500081E090E090936100809360009F918F9188
:1000600018951F921FB61F9211248F939F93809112
:100070006400909165008E31910541F51092650004
:1000800010926400809162009091630001969093B9
:1000900063008093620080916600909167000297F0
:1000A00021F488B392E0892788BB80916600909103
:1000B00067008330910521F488B398E2892788BBD3
:1000C0009F918F911F901FBE1F901895019690933E
:1000D000650080936400F4CF87B38F6387BB8BB7D1
:1000E00080688BBF85B78C6085BF88B318BA0895C8
:1000F00010BE13BE83B7856083BF789412BE89B7E4
:10010000826089BF0895E8DFF3DF24E541E050E035
:100110003CE263E070E0E4E0F0E0A2E5C2E0D0E0C1
:1001200005E010E0809166009091670083309105B2
:1001300009F469C044F58130910509F456C0823054
:10014000910509F440C0009789F7A8BB81E090E0D1
:10015000E0906200F0906300B4E1EB16F10414F457
:1001600090E080E0E0906000F09061008E219F219F
:10017000892B21F1D0936700C09366001092630031
:1001800010926200CFCF8430910549F185309105FE
:1001900069F628BBE0906200F0906300EA94EF28D3
:1001A000F1F51092670010926600109263001092B1
:1001B00062001092610010926000B4CF109267004C
:1001C00010926600AFCF8091620090916300069715
:1001D00009F0A8CFF0936700E0936600CFCF28BB6B
:1001E0005093670040936600C9CF38BBE09062002F
:1001F000F0906300B4E1EB16F10489F470936700AA
:1002000060936600BBCF8091620090916300069777
:1002100009F088CF1093670000936600AFCF9093EA
:0C0220006700809366007ECFF894FFCF4B
:00000001FF
